:1000000000200010B90100003D0200004502000080
:100010004D020000550200005D020000C6D2FFEF55
:100020000000000000000000000000006502000069
:100030006D02000000000000750200007D0200005B
:100040008502000085020000850200008502000094
:100050008502000085020000850200008502000084
:100060008502000085020000850200008502000074
:100070008502000085020000850200008502000064
:100080008502000085020000850200008502000054
:100090008502000085020000850200008502000044
:1000A0008502000085020000850200008502000034
:1000B0008502000085020000850200008502000024
:1000C0008502000085020000850200008502000014
:1000D0008502000085020000850200008502000004
:1000E00085020000850200008502000085020000F4
:1000F00085020000850200008502000085020000E4
:1001000085020000850200008502000085020000D3
:1001100085020000850200008502000085020000C3
:100120008502000085020000DC4200000000001093
:100130000000000000000010F802000080B489B048
:1001400000AFF860B9607A60BB68FB61FB68BB61B7
:1001500000237B610AE0FB691A1DFA61BA69111D6F
:10016000B96112681A607B6904337B617A697B68C4
:100170009A42F0D300BF2437BD4680BC704700BF11
:1001800080B485B000AF786039607B68FB60002385
:10019000BB6007E0FB681A1DFA6000221A60BB68AA
:1001A0000433BB60BA683B689A42F3D300BF14378C
:1001B000BD4680BC704700BF80B586B000AF1B4B0A
:1001C0007B6113E07B691A1D7A611B683B617B6967
:1001D0001A1D7A611B68FB607B691A1D7A611B68B6
:1001E000BB60BA68F9683869FFF7A8FF7B69104AF5
:1001F0009342E7D30DE07B691A1D7A611B68FB60AF
:100200007B691A1D7A611B68BB60B968F868FFF7E3
:10021000B7FF7B69074A9342EDD3074B7B607B684E
:1002200001221A6001F04AF8FEE700BF2801000031
:10023000340100003C010000AC80044080B400AFF9
:10024000FEE700BF80B400AFFEE700BF80B400AFA0
:10025000FEE700BF80B400AFFEE700BF80B400AF90
:10026000FEE700BF80B400AFFEE700BF80B400AF80
:10027000FEE700BF80B400AFFEE700BF80B400AF70
:10028000FEE700BF80B400AFFEE700BFFFFFFFFF47
:10029000FFFFFFFFFFFFFFFFFFFFFFFFFFFFFFFF6E
:1002A000FFFFFFFFFFFFFFFFFFFFFFFFFFFFFFFF5E
:1002B000FFFFFFFFFFFFFFFFFFFFFFFFFFFFFFFF4E
:1002C000FFFFFFFFFFFFFFFFFFFFFFFFFFFFFFFF3E
:1002D000FFFFFFFFFFFFFFFFFFFFFFFFFFFFFFFF2E
:1002E000FFFFFFFFFFFFFFFFFFFFFFFFFFFFFFFF1E
:1002F000FFFFFFFFFFFFFFFFFFFFFFFFFFFFFFFF0E
:1003000080B500AF00F080FF00F0AEFE00F0E4FE2C
:1003100000F000FF184A184BD3F8383223F01003CE
:10032000C2F83832144A144BD3F8803043F40053E7
:10033000C2F88030114B40F601721A60104B022255
:100340005A670F4B0122DA670E490E4B03F5004343
:100350001B6823F0020201F500431A600A4801F00D
:1003600047FD00F013F800F0CFF80A2000F00AFF74
:10037000202000F033F9FEE70080044000C0014077
:1003800000400440000001505041000080B500AF23
:100390000A2000F0DDFE5A4B03F500434FF4716272
:1003A0001A60574B03F57F533C334FF471621A6068
:1003B000544B0122DA604FF0A04303F50043FF22C3
:1003C0001A604FF0A04303F57F533C3300221A60BC
:1003D0004B4B03F57F533C3300221A600A2000F098
:1003E000B7FE4749464B03F57F533C331B6843F444
:1003F000006201F57F533C331A604149404B03F5DD
:100400007F533C331B6843F0100201F57F533C33AC
:100410001A603B493A4B03F57F533C331B6823F486
:10042000807201F57F533C331A603549344B03F534
:100430007F533C331B6843F4007201F57F533C3318
:100440001A602F492E4B03F57F533C331B6843F44E
:10045000806201F57F533C331A602949284B03F52C
:100460007F533C331B6823F0100201F57F533C336C
:100470001A600A2000F06CFE2149214B03F57F53DE
:100480003C331B6843F0100201F57F533C331A6084
:100490000A2000F05DFE202000F01EFC032000F08A
:1004A0001BFC422000F058FC282000F015FC002026
:1004B00000F012FC432000F04FFC002000F00CFC88
:1004C000002000F009FC402000F046FC282000F04D
:1004D00003FC002000F000FC412000F03DFC8020E7
:1004E00000F03AFC9E2000F037FC002000F0F4FB06
:1004F000002000F0F1FB242000F02EFC00BF80BDA6
:10050000000001500040044080B582B000AF0022DE
:100510000F21032000F018FD2E4800F0F9FC4FF4E5
:1005200048727321032000F00FFD072000F0D4FB78
:10053000C42000F011FC04237B600EE04FF44872ED
:100540007321786800F000FD3F2000F0C5FBC42057
:1005500000F002FC7B6801337B607B68232BEDDDC0
:1005600000220E21232000F0EFFC1E2000F0B4FB3F
:10057000C42000F0F1FB00220F21212000F0E4FC58
:10058000154800F0C5FC00233B6011E03B68C3F157
:1005900072034FF448721946032000F0D5FC042082
:1005A00000F09AFBC42000F0D7FB3B6801333B60AE
:1005B0003B68712BEADD00220021032000F0C4FC1F
:1005C0003E2000F089FBC42000F0C6FB00BF0837C6
:1005D000BD4680BDA0410000A441000090B585B09B
:1005E00000AF78600023FB6053E02F4A2E4B1B685E
:1005F00043F08073136000BF2B4B1B69002BFBDAA9
:10060000294B1B699B09C3F30903284A1360274B35
:100610001B68184603F0C0FC0346184603F0C0FCF4
:100620004FF00002224B02F081FF03460C461846B1
:1006300021464FF000021F4B03F000F803460C4622
:100640001846214603F0ECF902461B4B1A601A4B80
:100650001B681A49184603F0EDFA0346184603F0E2
:1006600067FC03461946164801F0C2FB124B1B6893
:100670001249184603F0DEFA03461946114AFB6890
:1006800042F823104FF4FA7000F07CFDFB68013350
:10069000FB60FA687B689A42A7DB0A4800F014F80E
:1006A00000BF1437BD4690BD00C0014000010010DE
:1006B00000001440000090400401001000007A4443
:1006C000AC4100000000001090B5CDB000AF3B1D64
:1006D000186007F1940380220021184600F070FE94
:1006E00007F11403184680231A46002100F068FE23
:1006F000CB4B03F57F533C331B6803F00203002B05
:100700003FD00023C7F82C3136E0D7F82C0103F096
:10071000F4F9C1A3D3E9002302F008FF03460C4615
:10072000184621464FF00002BE4B02F0FFFE034682
:100730000C461846214603F073F90346184600F0AC
:10074000C5FD03464FF07E51184603F09BFB034660
:100750004FF08641184603F06DFA03461A46D7F863
:100760002C319B0007F598710B4443F89C2CD7F86B
:100770002C310133C7F82C31D7F82C311F2BC4DDB5
:100780001BE00023C7F8283113E0D7F828319B007D
:100790003A1D126813441A68D7F828319B0007F5F0
:1007A00098710B4443F89C2CD7F828310133C7F8D3
:1007B0002831D7F828311F2BE7DD07F1140107F1A5
:1007C00094000523202200F037F94FF00003C7F80A
:1007D00018310023C7F82431934B1B681B09C3F160
:1007E0000D0300221946002000F0AEFB8F4800F0F8
:1007F0008FFB0123C7F820317AE0D7F820319B0026
:1008000007F59872134453F89C2CD7F820319B00BD
:1008100007F598710B4453F89C3C1946104603F0B9
:1008200009FA03461C4607F11403D7F8202153F8B0
:10083000220007F11403D7F8202153F8223019467B
:1008400003F0F8F903461946204603F01BFB034664
:10085000184600F057FD0446D7F8240103F094FB36
:1008600003461946204603F0D4FB0346002B3AD03A
:10087000D7F820319B0007F59872134453F89C2C4D
:10088000D7F820319B0007F598710B4453F89C3C36
:100890001946104603F0CEF903461C4607F114032F
:1008A000D7F8202153F8220007F11403D7F82021AC
:1008B00053F82230194603F0BDF903461946204685
:1008C00003F0E0FA0346184600F01CFD03464FF023
:1008D0007C51184603F0D6FA0346184603F028FB6D
:1008E0000346C7F82431D7F820310133C7F8203147
:1008F000D7F820311F2B80DDD7F824314A4A136006
:10090000D7F82431002B00DA0F331B11C3F10D038C
:1009100000221946002000F017FB07F108030A2205
:100920001946D7F8240101F0C9FAC7F81401D7F81D
:10093000140100F0EDFA0123C7F81C3160E0D7F88C
:100940001C31D81C3A4AD7F81C3152F823301946CA
:1009500000F044FBD7F81C319B0007F59872134454
:1009600053F89C2CD7F81C319B0007F598710B4469
:1009700053F89C3C1946104603F05CF903461C46AC
:1009800007F11403D7F81C2153F8220007F11403D0
:10099000D7F81C2153F82230194603F04BF90346CF
:1009A0001946204603F06EFA0346184600F0AAFCEA
:1009B00003464FF08041184603F094F90346C7F808
:1009C0001831D7F81C310333D7F81811184600F046
:1009D000DBFAD7F8180103F0E3FA03460C461A468F
:1009E0002346144801F004FA1149D7F81C31D7F80E
:1009F000182141F82320D7F81C310133C7F81C31E6
:100A0000D7F81C311F2B9ADD2020FFF7E7FD00BF30
:100A100007F59A77BD4690BDF1D4C853FB21C93F75
:100A2000000001500000244008010010B8410000FF
:100A300080000010BC4100002DE9F04F91B000AFE4
:100A400078613961FA60BB60FB684FEA630BFB6851
:100A50007B604FF00108C3E0BB68C8EB03039C4A0E
:100A600052F823307B63BB68C8EB0303994A52F802
:100A700023303B637B685E104FF07E53FB634FF087
:100A80000003BB630025A3E02C4679E004EB0609D4
:100A900023469B007A69134418684B469B007A6989
:100AA00013441B68194603F0EDF90346FB62234625
:100AB0009B003A69134418684B469B003A691344FB
:100AC0001B68194603F0DEF90346BB6223469B0010
:100AD0007A69134418684B469B007A6913441B6873
:100AE000194603F05FF903467B6223469B003A698F
:100AF000134418684B469B003A6913441B68194617
:100B000003F050F903463B624B469B007A6902EBC7
:100B1000030AF96B786A03F08DF803463B60B96B02
:100B2000386A03F087F803461946386803F03AF943
:100B30000346CAF800304B469B003A6902EB0309B2
:100B4000F96B386A03F076F803469A46B96B786A0F
:100B500003F070F803461946504603F093F9034634
:100B6000C9F8003023469B007A691344FA6A1A6078
:100B700023469B003A691344BA6A1A607B681C4496
:100B8000FB689C4282DBFB6BFB61796BF86B03F0CB
:100B900051F803461C46396BB86B03F04BF803461B
:100BA0001946204603F0FEF80346FB63796BB86BE9
:100BB00003F040F803461C46396BF86903F03AF835
:100BC00003461946204603F05DF90346BB63013531
:100BD000B542FFF659AF7B685B107B6008F10108F6
:100BE000BB6898457FF738AF0124254638E0AC4212
:100BF0002EDA04F1FF396E1E33469B007A691344E6
:100C00001B68FB6233469B003A6913441B68BB6256
:100C100033469B007A6913444A46920079690A4434
:100C200012681A6033469B003A6913444A469200A0
:100C300039690A4412681A604B469B007A6913446A
:100C4000FA6A1A604B469B003A691344BA6A1A6002
:100C50005E4601E0AD1B7610AE42FBDB354401344D
:100C6000FB689C42C3DBF86803F08EF90346194623
:100C70004FF07E5003F036F803467B6300241EE0FD
:100C800023469B007A69D51823469B007A69134452
:100C90001B68796B184602F0CDFF03462B60234694
:100CA0009B003A69D51823469B003A6913441B6898
:100CB000796B184602F0BEFF03462B600134FB68D7
:100CC0009C42DDDB00BF4437BD46BDE8F08F00BF6E
:100CD000CC4100000442000080B582B000AF7860D3
:100CE00000F07AF84FF0A04303F50043FF221A60AA
:100CF0004FF0A0437A6803F57F533C331A601549DF
:100D0000144B03F57F533C331B6823F4807201F5C9
:100D10007F533C331A600F490E4B03F57F533C332E
:100D20001B6823F4806201F57F533C331A60094944
:100D3000084B03F57F533C331B6843F4007201F505
:100D40007F533C331A6000F0ADF800BF0837BD4652
:100D500080BD00BF0000015080B582B000AF786058
:100D600000F03AF84FF0A04303F50043FF221A6069
:100D70004FF0A0437A6803F57F533C331A6015495E
:100D8000144B03F57F533C331B6843F4807201F529
:100D90007F533C331A600F490E4B03F57F533C33AE
:100DA0001B6823F4806201F57F533C331A600949C4
:100DB000084B03F57F533C331B6843F4007201F585
:100DC0007F533C331A6000F06DF800BF0837BD4612
:100DD00080BD00BF0000015080B582B000AF00F0C0
:100DE0000BF80346FB71FB7903F00303032BF6D1E9
:100DF00000BF0837BD4680BD80B582B000AF4FF060
:100E0000A04303F5004300221A602549244B03F553
:100E10007F533C331B6843F4807201F57F533C33AE
:100E20001A601F491E4B03F57F533C331B6823F4A4
:100E3000007201F57F533C331A601949184B03F5D2
:100E40007F533C331B6843F4806201F57F533C338E
:100E50001A601349124B03F57F533C331B6823F48C
:100E6000006201F57F533C331A60022000F070F9F4
:100E70004FF0A04303F57F533C331B68FB710849D7
:100E8000074B03F57F533C331B6843F4006201F5C5
:100E90007F533C331A60FB7918460837BD4680BD46
:100EA0000000015080B500AF022000F051F90E495A
:100EB0000D4B03F57F533C331B6823F4006201F5AF
:100EC0007F533C331A60022000F042F90649064B7A
:100ED00003F57F533C331B6843F4006201F57F53F5
:100EE0003C331A6000BF80BD0000015080B582B065
:100EF00000AF0346FB71FB79203B1846FFF7ECFE81
:100F0000C020FFF729FF00BF0837BD4680BD00BFE6
:100F100080B584B000AF78600023FB6009E0FB6817
:100F20007A6813441B781846FFF7E0FFFB6801332B
:100F3000FB60FB687A6813441B78002BEFD100BF7D
:100F40001037BD4680BD00BF80B586B000AFF860E9
:100F5000B9607A607A68FB68D118BA6813469B005A
:100F60001344DB000B447B617869FFF7B5FE7B69B6
:100F70001B121846FFF7B0FE2420FFF7EDFE00BF5E
:100F80001837BD4680BD00BF80B584B000AF786023
:100F900039600023FB6011E0FB68C3F171034FF47B
:100FA000487219467868FFF7CFFF3E20FFF794FE9E
:100FB000C420FFF7D1FEFB680133FB60F86802F044
:100FC000E3FF03463968184603F006F80346002B92
:100FD000E2D100BF1037BD4680BD00BF80B584B0F0
:100FE00000AF786039600123FB6011E0FB68C3F15A
:100FF00071034FF4487219467868FFF7A5FF002087
:10100000FFF76AFEC420FFF7A7FEFB680133FB6011
:10101000F86802F0B9FF03463968184602F0DCFFB1
:101020000346002BE2D100BF1037BD4680BD00BF94
:1010300080B586B000AFF860B9607A6000237B614C
:1010400009E0BA687B6913441B78184600F0B4F8CD
:101050007B6901337B617B687A699A42F1D37B6853
:1010600018461837BD4680BD80B400AF174B01222B
:10107000C3F8A420154B0122C3F8A820144B012269
:10108000C3F89820124A124BD3F8803043F48053AF
:10109000C2F880300F4B8322DA600E4B27221A6091
:1010A0000C4B00225A600B4A0A4B9B6843F0070323
:1010B0009360084B10229A62064A064BDB6823F0C5
:1010C0008003D36000BFBD4680BC70470040044031
:1010D000008004400080004080B400AF0A4A0A4B00
:1010E000D3F8803043F40073C2F88030074B0022FD
:1010F0001A67064B064ADA60044B02225A6000BFA8
:10110000BD4680BC704700BF0080044000400140E5
:101110003F19010080B400AF0A4A0A4BD3F880306F
:1011200043F48063C2F88030074B00221A67064BF5
:10113000064ADA60044B02225A6000BFBD4680BCFA
:10114000704700BF00800440008001403F1901004B
:1011500080B483B000AF7860094B02225A60084B1C
:1011600001225A6000BF064B9A687B689A42FAD304
:10117000034B00225A6000BF0C37BD4680BC70474D
:101180000080014080B483B000AF7860094B022238
:101190005A60084B01225A6000BF064B9A687B6870
:1011A0009A42FAD3034B00225A6000BF0C37BD4667
:1011B00080BC70470040014080B483B000AF03465C
:1011C000FB7100BF0F4B5B6903F02003002BF9D0CC
:1011D000FB790A2B0DD10B4B0D221A6000BF094B76
:1011E0005B6903F02003002BF9D0064B0A221A603A
:1011F00002E0044AFB79136000BF0C37BD4680BC97
:10120000704700BF008000402A4BD3F8382222F0FC
:101210002002C3F8382200221A62C82200BF013A15
:10122000FCD10121196459645A64596421494B6CF9
:10123000204A13F0010FFAD025239360D2F83832F8
:1012400023F08003C2F83832D1681A4BC907FBD5A6
:1012500003221A67002101225A6759675A671A4602
:10126000516F144BC807FBD5D3F83822002122F464
:101270008062C3F83822D3F8382222F48072C3F88F
:10128000382201229A64DA64D964DA64DA6C12F0E2
:10129000010F084AFAD0032313615169054BC907AE
:1012A000FBD50022C3F8C02001229A67024AC3F886
:1012B00080207047008004405F00010008B500F006
:1012C000C1FDBDE80840FFF71BB8FFFF10B50021C6
:1012D000044602F081FE30B12146094802F062FD69
:1012E00004F1004403E00649204602F0CBFD01234F
:1012F00001461A462046BDE8104001F0E9BC00BF97
:10130000DB0FC93FF8B50021044602F09FFE58B13B
:101310000021204602F060FE002846D0244B212206
:101320001A606FF40000F8BDE615C4F3160444F02B
:101330007C542049204602F07DFC1F4902F0A2FDAA
:1013400007460146204602F0CDFC394602F09AFDE0
:101350004FF07C5102F06EFC07460146204602F039
:10136000C1FC394602F08EFD4FF07C5102F062FC68
:1013700007460146204602F0B5FC394602F082FDE0
:101380004FF07C5102F056FCA6F17E05EA070346B9
:1013900005D50A4902F04EFC0346A6F17D05022060
:1013A00095FBF0F003EBC050F8BD2046F8BD00BF40
:1013B0000C010010BA14173FA8A9D53EF304353F1D
:1013C00002F082BE10B5425C4318342A01DC0020D2
:1013D00010BD352A06D1194611F8012F302AFBD04D
:1013E000002AF4D01A46302412F8011D392901D1FF
:1013F0001470F9E7013111700278302AE7D01A1A17
:10140000002A03DB13F801299A70F8E7012010BDC8
:1014100030B58C1F0A25A1420CD090FBF5F3C3EB2D
:101420004312C3EB8202303000EB420001F80109A5
:101430001846F0E730BDFFFF0EB430B5054694B056
:1014400017AB53F8044B3C22002105A80493FFF787
:10145000B7FF0A2308936FF000430793104B0094E3
:101460000293049B4FF0FF32019305A86FF00043F5
:10147000059500F051FD079B0446013B002B0793A7
:1014800003DB059B00221A7003E005A9002001F090
:10149000F0FC204614B0BDE8304003B0704700BFF8
:1014A000A9140000FFFFFFFF2DE9F04F144647F697
:1014B000F0724E689DB00693C6F30F4323F00F03FE
:1014C0005B040F685B0C93420590DDF89CB00997B4
:1014D000079627D10023E370C6F313033B434FF075
:1014E0006E0315D169226370002E4FF066032270DF
:1014F000A37001DAA64B10E0069B980706D4A54A14
:1015000013F0040FA44B08BF134606E0A34B04E0FE
:1015100023706122A3709F4B6270269A0320136090
:1015200000F033BC059B23F02003412B00F03982EF
:10153000002200233846314602F0FDFA38B106F1A8
:101540000043099A1E46012317460A9300E00A90B9
:10155000002200233846314602F0D7FA002840F036
:10156000028240F22D150FAA3846314601F07FFD68
:101570000F9ACDE910015543A5F5AB531C3B4FF431
:101580007A7593FBF5F50020AA1A854901F09CFDB8
:10159000002DCDE91A0106DA77A3D3E900236E42C4
:1015A000CDE9162306E07F4B4FF00002CDE916236C
:1015B00016D02E46F10709D4DDE91601DDE9162320
:1015C00001F0B4FF7610CDE91601F3E7DDE916016D
:1015D000DDE91A2301F0AAFF012ECDE91A01EBD1B2
:1015E000DDE91001DDE91A2302F028F8CDE9120146
:1015F000DDE9120162A3D3E9002302F09CFA88B16D
:10160000DDE912010022684B01F090FFCDE91201E3
:10161000DDE91A010022644B02F010F8013DCDE92A
:101620001A01E5E7DDE9120157A3D3E9002302F02F
:10163000D6FA88B1DDE9120100225B4B01F0FEFF12
:10164000CDE91201DDE91A010022574B01F06EFFCE
:101650000135CDE91A01E5E7DDE9120102F00AFAE8
:101660006B4213EA250338BF2B4682460B930F9A31
:101670005046AE1A02F041FA324601F025FD002232
:101680000023002DCDE91201CDE914232FDA3AA36E
:10169000D3E90023CDE9162300220023CDE9182346
:1016A000DDE91689DDE916014FF000084246DDE963
:1016B00018674B4602F05EF832463B4602F02AF9C4
:1016C000CDE91801CDE91689DDE916010022354B77
:1016D00001F02CFF02460B460020314902F04AF887
:1016E0000022304B01F0AAFFCDE918010CE02D4B90
:1016F0004FF00002CDE916234FF000024FF0000337
:10170000CDE9182300F094800B9B0893089BDA071F
:101710004CD4DDE91623DDE91889DDE918671046A8
:10172000194602F0F7F842464B4602F0F3F832460B
:101730003B4601F0FBFECDE91801DDE91601DDE9CC
:10174000162301F0F3FECDE91601DDE91689DDE986
:1017500016014FF000084246DDE918674B4602F0DB
:1017600009F83B46324602F0D5F8089BCDE918014E
:101770005B10CDE91689C8E79A9999999999C93F5B
:1017800000000000006AF8400000000080842E4144
:101790006E420000CD4200003E4200003C4200008C
:1017A0000000F03F0000144000002440DDE9122357
:1017B000DDE91889CDE90C23DDE91601DDE91823FF
:1017C00002F0A8F8DDE9146732463B4601F0AEFEB0
:1017D000424606460F46DDE90C014B4601F0A6FEE7
:1017E00002460B463046394602F094F8CDE9140122
:1017F000DDE91601DDE9122301F098FECDE91201C1
:10180000DDE91289DDE912014FF000084246DDE909
:1018100014674B4601F0AEFF3B46324602F07AF8C1
:10182000089BCDE91401012BCDE912897FF471AF3A
:10183000DDE91201DDE9102302F0A7F910B90AF180
:10184000FF3A14E7DDE91223DDE9100101F092FF10
:10185000CDE91001DDE91423DDE9100101F08AFF73
:10186000CDE91001DDE91A23DDE9100101F0E6FE02
:10187000A5A3D3E90023CDE91001DDE9100101F0B2
:1018800055FECDE91001DDE9100102F0F3F8DDE9C4
:101890001067804602F031F902460B463046394661
:1018A00001F068FF98A3D3E9002301F03FFECDE9E2
:1018B0001001DDE9100102F0DDF80646002E06DA1F
:1018C00006F5742606F5107608F1FF38F6E7904A1B
:1018D00096428F4B06DDA6F57426A6F5107608F124
:1018E0000108F5E7B8F1000F06DA08F5742808F5E5
:1018F00010780AF1FF3AF5E7984506DDA8F5742857
:10190000A8F510780AF1010AF6E7824B9A4511DC36
:10191000013398FBF3F296FBF3F37F480A2100FBB7
:10192000028800FB036601FB0A2A01FB08384E43CC
:10193000013D1DE0764B9A451ADD0A229AFBF2F131
:101940006FF0090303FB01AA7448013500FB0A8A02
:101950009AFBF2F803FB08A300FB0366053696FB2F
:10196000F2F68A4604E00026B046B2466FF004055F
:101970002146302701F8067B5046FFF749FD04F168
:101980000C014046FFF744FD04F112013046FFF719
:101990003FFD002323750A9B0535E77443EA85055F
:1019A00000E00025EB0701D55D4B0AE0069B9F0791
:1019B00006D45C4A13F0040F5B4B08BF134600E0EB
:1019C0005A4B269A25F001051360042395FBF3F585
:1019D000059BDBF80000612B10D006DC452B6DD099
:1019E000472B4DD0412B49D108E0059B662B00F0D9
:1019F0000581672B44D0652B40D15FE00799002219
:101A0000C1F3130309990A430799C1F30A5515B1A4
:101A1000A5F2FF3104E052EA0301454908BF002165
:101A200088B9069E36070ED4002D0B464148059D09
:101A300041490CBF30223122612D08BF01462046AA
:101A4000FFF7FAFC10E0002DCDE9002302910346D8
:101A50003A493B48059D0CBF30223122612D08BF19
:101A600001462046FFF7E8FC2D4A2E4B079933EA42
:101A7000210328BF1346269A136086E16723059346
:101A8000069B002843F400630693DCBF0123CBF8D8
:101A90000030DBF8001020461129D4BF013112219B
:101AA000FFF790FCDBF8003005449D42C0F29F80B8
:101AB000013BCBF80030059B023B0593DBF800307F
:101AC000112B05DD299A113B13601123CBF800304F
:101AD000069BDBF8006013F4006706F1020604D1F0
:101AE00031462046FFF76EFC054463782370DBF82F
:101AF000003023B940F60803069A134013B32E238F
:101B0000637020E0AFF300800000000080842E416D
:101B10003F420F009F8601006079FEFF40420F00A8
:101B20006E420000CD4200003E4200003C420000F8
:101B300001FCFFFF40420000484200005F420000FD
:101B4000504200000126299B1B68002BC2BF3E2388
:101B5000A355013677B1069B1F070BD4A219161B9C
:101B600012F8013D302BFAD03E2BF8D02E2B08BFB7
:101B700006F1FF369DF81430002DA355B8BF6D4215
:101B800006F1020306F10102B5BF2D212B211E46ED
:101B90001E46B5F57A7FA1540ADB4FF47A7295FBA5
:101BA000F2F202F13001E15479495E1C01FB025569
:101BB000632D0ADD642395FBF3F303F13002A25594
:101BC0006FF0630202FB035501360A2395FBF3F322
:101BD000DBB203F13002A255C3EB4312C3EB820325
:101BE0003035344405EB43036370B01CCDE02A1D4F
:101BF000FFF65EAF6A1C9B1ACBF80030069A002DE8
:101C0000DBF8003002F400674CDAC5F100085A1C1A
:101C1000904509DD302323702E236370DBF80030FC
:101C2000299A0226136038E02B449E1C122EC1BF55
:101C3000299A113B136013265FB931462046FFF7FE
:101C4000C1FB30B17FEA050806F1010601D16378D6
:101C50000DE0B8F1010F04EB06030CD11A1B002AAA
:101C600003DD13F801299A70F8E701363023237059
:101C70002E23637011E01A1B002A03DD13F80129DB
:101C8000DA70F8E7302323702E236370289A3C2300
:101C9000A37008F1FF3302361360299B1B68002BE9
:101CA00025DC59E005EB030808F10206122E3DDDA4
:101CB0003FB913212046FFF785FB10B101351426EB
:101CC00000E01326721E9542234614DA13F8012F02
:101CD00003F8012C1A1B9542F8DA63192E225A7068
:101CE000DBF800301D44299B113D1D60A5B33E2348
:101CF000A355013630E013F8011F03F8011C191B2E
:101D00008A42F8DCA3193C2203F8012CAD1B289B66
:101D10002E2202351D60A255DBF80020731CD2B1C3
:101D2000299902360A603E22E25415E03FB9314655
:101D30002046FFF747FB10B1013508F103062346A3
:101D400013F8012F03F8012C1A1B9542F8DA2544E9
:101D50002E236B7000E01E4677B1069B180713D444
:101D60002644301B16F8013D302BFAD03E2BF8D01C
:101D70002E2B0AD1013808E0DBF8003023B9069B8E
:101D8000190701D4701E00E030461DB0BDE8F08F89
:101D900018FCFFFFF0B504460D461F46164695B0E9
:101DA0003C22002105A8FFF70BFB0A2308936FF0E4
:101DB000004307930D4B0594002402936A1E2346AB
:101DC0008DE8C00005A800F0A7F8079B0546013B79
:101DD000A342079302DB059B1C7003E005A9204684
:101DE00001F047F8284615B0F0BD00BFA914000067
:101DF0000FB473B506AB53F8046B01213246684645
:101E00000193FFF7C7FF041E13DD651C284601F090
:101E1000B5F9009068B1019B32462946FFF7BAFF39
:101E2000074B22460099186DFFF702F9009801F060
:101E300009FA204602B0BDE8704004B0704700BF08
:101E40001801001010B5174A1749002001F0B0F82A
:101E50004FF480734FF480620021124800F0F0FECE
:101E6000124A1349012001F0A3F84FF480734FF494
:101E7000806200210D4800F0E3FE0E4B1B68022B30
:101E80000EDD0D4A0A49022001F092F8BDE810402B
:101E90004FF480734FF480620021074800F0D0BEF9
:101EA00010BD00BF18010010704200005401001066
:101EB00072420000D8420000900100100A2AF0B5DA
:101EC000034601D100281FDB00200D46114F1E469E
:101ED000B3FBF2F32C4603FB1266BE5D04F8016B04
:101EE0000BB12546F3E710B12D23AC1C6B7000231A
:101EF00023700B46621E9A4209D910781C7802F8AA
:101F0000014903F8010BF6E743420120DDE70846EB
:101F1000F0BD00BF744200002DE9F04F0546B1B09E
:101F2000CDE90A23DDF8EC8000223A9B0492187870
:101F300003F1010A002800F07E86252801D1002443
:101F40001FE0049BDDE90A671946DA175C1C13469B
:101F5000B142BB4180F26586AB68013B002BAB60B0
:101F600005DB2B685A1C2A60187000F05ABE2946FF
:101F700000F07FFF00F055BE09D92D2F0ED144F09F
:101F8000010453461AF8017B2B2FF5D10BE0202FCB
:101F90000CD0232F0DD144F00804F2E7302F08D1E4
:101FA00044F40074EDE744F00204EAE744F004046A
:101FB000E7E72A2F02D000260A2211E0D8F80060B5
:101FC00008F10402002EBCBF764284F0010403F144
:101FD000020A5F78904608E002FB06361AF8017B99
:101FE000A7F13003D9B20929F6D926EAE6732E2FD4
:101FF0000E931DD19AF800702A2F08D1D8F80090BE
:102000009AF8017008F104080AF1020A0AE00AF1DC
:10201000010A4FF000090A22A7F13003D9B20929B9
:1020200040F20386B9F1000F02DB44F0100401E036
:102030004FF000096C2F0ED19AF800706C2F03BF7F
:102040009AF8017044F060040AF1020A0AF1010AE8
:1020500018BF44F020044C2F01D0712F04D19AF8FE
:10206000007044F060041CE0682F0FD19AF80070F3
:10207000682F03BF9AF8017044F480740AF1020AD1
:102080000AF1010A18BF44F080040CE06A2F02D163
:1020900044F0400403E07A2F01D0742F03D19AF862
:1020A00000700AF1010A672F1CDC652F80F2B282F2
:1020B000472F00F0AF8209DC412F00F0A582452FA9
:1020C00000F0A882002F00F0BF8027E0612F00F011
:1020D0009B8203DC582F00F0A8811FE0632F17D0EC
:1020E000642F09E0702F00F0F68108DC6E2F00F0FD
:1020F000B18000F3FB81692F00F04F820EE0752F55
:1021000000F01882782F00F0BB81732F06D1C4E055
:1021100008F104030793D8F8007001E0CDF81C80A3
:102120000E9B14F0010603F1FF3308933CD10E9A85
:1021300014F4007FA2F10204049A18BF3023104661
:102140004FEAE2710A460146CDE90E1208BF20238C
:102150004FF000084FF00009049AB4EB0801424424
:10216000089120D4DDE90E01DDE90ABC10EB08007E
:1021700041EB0901584571EB0C020FDAAA68013AEC
:10218000002AAA6004DB2A68511C2960137005E04C
:1021900018462946089300F06CFE089B18F10108C8
:1021A00049F10009D8E70492049B1946DA175C1C30
:1021B00013460A46DDE90A0182428B410DDAAB681B
:1021C000013B002BAB6004DB2B685A1C2A601F709C
:1021D00003E02946384600F04CFE002E00F01D8535
:1021E0002246089B002603F1FF380027E3174FF033
:1021F0002009C6EB080100291FDBDDE90ABC9019A4
:1022000043EB0701584571EB0C0112DAA96801395B
:102210000029A96005DB2968481C286081F8009026
:1022200007E029462020CDE9042300F022FEDDE965
:102230000423013647F10007DBE7089B002BA8BF0A
:10224000E418234600F0E7BC0AF1FF3ACDF81C8001
:1022500000F0E4BC08F1040314F0400F0793D8F831
:10226000003006D0049A1046D117C3E9000100F0EF
:10227000D5BCA7060DD4E60504D59DF810201A702C
:1022800000F0CCBC240604D5BDF810201A8000F064
:10229000C5BC049A1A6000F0C1BC08F1040307939E
:1022A000B14AD8F80030002B08BF134618460893EF
:1022B00000F0E8FC14F0100F0746089B02D04845D8
:1022C000A8BF4F460E9AD61B14F0010208923DD1CA
:1022D000049914F4007F4FEAE17C08466146CDE999
:1022E0000E0114BF302220224FF000084FF00009E9
:1022F000741EC8EB0401002922DBDDE90E01DDE9D3
:102300000ABC10EB080041EB0901584571EB0C01C8
:1023100011DAA96801390029A96004DB2968481C81
:1023200028600A7007E0104629461E931C9200F0B0
:10233000A0FD1E9B1C9A18F1010849F10009D8E77D
:10234000049A26EAE67632440492A61B049A4FF0D9
:1023500000081046D1170A460146CDE90E124FF08B
:102360000009474523DDDDE90E01DDE90ABC10EB7C
:10237000080041EB0901584571EB0C0212DAAA681A
:10238000013A002AAA6003EB080205DB2968481C11
:10239000286012780A7005E0294610781C9300F036
:1023A00068FD1C9B18F1010849F10009D9E7049B5D
:1023B000002FA8BFDB190493089B002B00F02E848C
:1023C000049B4FF000081946DA1713460A464FF0EF
:1023D0000009741E2027C8EB0401002920DBDDE979
:1023E0000ABC12EB080043EB0901584571EB0C01E4
:1023F00011DAA96801390029A96004DB2968481CA1
:1024000028600F7007E029462020CDE9082300F05E
:1024100030FDDDE9082318F1010849F10009DAE788
:10242000049B002EA8BF9B19F5E3600609D508F1AF
:10243000070828F0070808F108030793D8E900BC4B
:1024400007E0D8F8002008F10403934607934FF003
:10245000000C210602D51FFA8BFB03E0E20503D531
:102460000BF0FF0B4FF0000C404914F0080F4048F0
:1024700008BF0846E30640F1EA8024F40074E6E071
:10248000660609D508F1070828F0070808F10803CF
:102490000793D8E900BC07E0D8F8002008F104034E
:1024A000934607934FF0000C200602D51FFA8BFBD2
:1024B00003E0E10503D50BF0FF0B4FF0000C2B49B7
:1024C00014F0080F2B4808BF0846E20640F1C1800F
:1024D00024F40074BDE0D8F8002008F10403079349
:1024E00093464FF0000C24492248B5E0630609D515
:1024F00008F1070828F0070808F108030793D8E94E
:1025000000BC07E0D8F8002008F1040393460793C5
:102510004FF0000C260602D51FFA8BFB03E0E00506
:1025200003D50BF0FF0B4FF0000C14F0080F0F4910
:1025300012485EE0610609D508F1070828F007088F
:1025400008F108030793D8E900BC07E0D8F8002099
:1025500008F10403934607934FF0000C22060FD5B1
:102560001FFA8BFB10E000BF85420000CD42000047
:102570008C4200008F420000A54200009242000001
:10258000E30503D50BF0FF0B4FF0000C14F0100126
:1025900061D024F4007400215DE0660609D508F1DD
:1025A000070828F0070808F108030793D8E9002373
:1025B00005E0D8F8002008F104030793D31720069C
:1025C00001D512B202E0E10501D552B2D317002ABB
:1025D00073F1000105DAD2F1000B63EB430CB14853
:1025E0000BE09346A2079C4606D4AF49AF4814F0CF
:1025F000040F08BF084600E0AD4814F010012BD0CE
:1026000024F40074002127E0E3065CBF44F01004CA
:102610004FF00D0914F0100F08F1070828F0070813
:1026200008BF4FF0060914F0200144F4806008F15F
:10263000080318BF002107930446D8E900234FF090
:10264000000BCDE926234FF0000C084604E0994921
:1026500002E0994900E09448049EDDE90A23921BB8
:1026600063EBE673CDE9082323904FF0FF3024900D
:102670002590CDF8889000204FF0550328AE835563
:1026800001302028F8D114F4826F04BF0120229079
:10269000672F14DC652F80F2BC80472F00F0B980D3
:1026A00006DC412F00F0B580452F40F0C280B0E03D
:1026B000612F00F0AE80642F11D0582F0CE0702FE6
:1026C00010D006DC692F0AD06F2F40F0B2800021B5
:1026D0001DE0752F03D0782F40F0AB8002E000267C
:1026E0000A2728E000205BEA0C03804600F0A38064
:1026F0000BF00F068F5D28AE87554FEA1B1646EA92
:102700000C764FEA1C17B346BC460130EBE75BEA98
:102710000C03884600F08F800BF00700303028AEA5
:1027200088554FEADB0040EA4C704FEADC068346EE
:10273000B4460131EBE75BEA0C03B0467BD05FEABD
:102740005C014FEA3B004FEA9B0343EA8C7318930A
:102750004FEA9C031993DDE9182312184B411946DF
:102760001046130943EA017310930B091193DDE935
:10277000102312184B4119461046130A43EA01630D
:1027800012930B0A1393DDE9122312184B411946D9
:102790001046130C43EA014314930B0C1593DDE927
:1027A000142312184B41104619461A9300231B9309
:1027B000DDE91A2312184B411946D30843EA417345
:1027C0000C93CB080D930C9B1BF10600A3FB078910
:1027D0000D9B4CF1000107FB0399B0EB080061EB86
:1027E0000901030943EA017316930B091793DDE905
:1027F0001623DDE90C01801859410BF1300200EB82
:102800008003A2EB430228ABF254834601368C4688
:1028100091E725AB039324AB029322AB019323AB47
:10282000009328AA234626A938463C9EB0478046F6
:1028300001E04FF0000814F480631C930ED00023D5
:102840002293249B002BC4BF03F1FF332293259BCB
:10285000002B09DD229A013B134404E0229BB3EBD9
:10286000080348BF00232293229E239800F00AFA0F
:102870000E9B46449E1B04F001030E9340F201237D
:102880002340361A2BB900220023771E4FF020096F
:102890001DE04FF000094846C11700220023CDE992
:1028A0001E013EE06E420000CD4200003E420000AC
:1028B0003C42000094420000A5420000DDE908010E
:1028C000824273EB010106DB013243F10003B91AC6
:1028D0000029F3DA13E0A96801390029A96005DBB2
:1028E0002968481C286081F80090EDE729462020DF
:1028F000CDE91E2300F0BDFADDE91E23E4E726EA58
:10290000E679C9EB0706C6E7DDE91E0180185941E3
:10291000DDE908BC584571EB0C010DDB013243F1D8
:102920000003239909EB0207481C239091F800E06B
:10293000BEF1000FE8D113E0A96801390029A960B0
:1029400005DB2968481C286081F800E0E6E7294695
:102950007046CDE9202300F08CFADDE92023DDE785
:102960000E9B002B35D13846F917CDE91E0114F422
:10297000007F14BF4FF030094FF0200900220023E0
:10298000741EA11A002920DBDDE91E01DDE908BC67
:1029900080185941584571EB0C0112DAA9680139C8
:1029A0000029A96005DB2968481C286081F800908F
:1029B00007E029464846CDE9202300F05AFADDE930
:1029C0002023013243F10003DBE726EAE6763744B1
:1029D000A61B1C9B43B93846F91700220023CDE9FA
:1029E0001C014FF030098FE00024A04540F3DE8049
:1029F00028ABE05C3C2808D03E285FD13846F91768
:102A000000220023CDE91C013BE03846F917CDE94F
:102A10001C0100220023249907EB02090139002937
:102A2000249161DBDDE91C01DDE908BC8018594116
:102A3000584571EB0C0113DAA96801390029A96026
:102A400006DB2968481C28604FF03000087007E05A
:102A500029463020CDE91E2300F00BFADDE91E23C4
:102A6000013243F10003D6E7DDE91C01801859412A
:102A7000DDE908BC584571EB0C010ADB013243F17A
:102A80000003259907EB0209013900292591EBDAAA
:102A90002AE0A96801390029A96006DB2968481CD9
:102AA00028604FF030000870E8E729463020CDE973
:102AB0001E2300F0DEF9DDE91E23DFE7DDE908BCB7
:102AC000FB175F4573EB0C0307F101090CDAAB68E8
:102AD000013B002BAB6004DB2B685A1C2A6018708A
:102AE00002E0294600F0C5F901344F467DE7DDE9F3
:102AF0001C0180185941DDE908BC584571EB0C01F7
:102B000009DB013243F100032299BC180139002985
:102B10002291ECDA13E0A96801390029A96005DBEC
:102B20002968481C286081F80090EAE7294630208F
:102B3000CDE91E2300F09DF9DDE91E23E1E72046E3
:102B4000E11730ABCDE91C0103EB0807213F002260
:102B50000023C2EB0801002922DDDDE91C01DDE9CB
:102B600008BC80185941584571EB0C0112DAA9686C
:102B700001390029A96005DB2968481C28603878DC
:102B8000087007E029463878CDE91E2300F071F976
:102B9000DDE91E23013207F1FF3743F10003D8E7D7
:102BA000B8F1000FACBF04EB0807271C0E9B83B3E2
:102BB0003A464FF000084FF00009741EFB17C8EBAF
:102BC0000401002922DBDDE908BC12EB080043EB1D
:102BD0000901584571EB0C0113DAA9680139002984
:102BE000A96006DB2968481C28604FF020000870A7
:102BF00007E029462020CDE90E2300F03AF9DDE96F
:102C00000E2318F1010849F10009D8E7002EA8BFEA
:102C1000BF19049B3B44049300E00494DDF81C803E
:102C2000049C04945346FFF782B902FB09391AF851
:102C3000017BFFF7F1B9049831B0BDE8F08F00BF18
:102C400070B5C468A50718D0B2F5007F0AD0B2F5F8
:102C5000806F03D0B2F5807F0FD103E000F1240133
:102C6000012303E0064D5E1EAE4206D822430161F9
:102C70000160C361C260002070BD012070BD00BF53
:102C8000FEFFFF0010B5421C830705D010F8013B82
:102C9000002BF9D1801A10BD034650F8041BA1F196
:102CA000013424EA010414F0803FF5D011F0FF0F45
:102CB0000AD011F47F4F05D011F47F0F14BF0346E3
:102CC000033302E0023300E00133981A10BDFFFF26
:102CD0002DE9F8430C4605464349204616461F4653
:102CE00001F0D3F930B1414B21221A606FF400009A
:102CF000BDE8F8833E49204601F0C4F83D4900F0A4
:102D0000F1FF01F015F9804601F03EF918F0010FCE
:102D1000044618BF764227B14FF07C5101F042F8CB
:102D20000446284601F03CF980462046894601F0D9
:102D300037F92BA3D3E9002300F0F8FB02460B463A
:102D40004046494600F016FD00F06AFE044600F0D9
:102D500065F8294901F099F9002839D02146204623
:102D600000F068FF0546254900F064FF244901F0A2
:102D700019F8294600F05EFF224901F083F8294640
:102D800000F058FF204901F00DF8294600F052FFED
:102D90001E4901F077F8294600F04CFF1C4901F06C
:102DA00001F8294600F046FF1A4901F06BF8294660
:102DB00000F040FF184900F0F5FF294600F03AFF07
:102DC000214600F037FF0146204601F05BF804463B
:102DD000002EB4BF04F100402046BDE8F88300BFD8
:102DE000182D4454FB2109400050C3470C0100102A
:102DF000DB0FC93FDB0F4940FFE6DB2EFB07442713
:102E00000721572BE391302F2A32D7321DEF383666
:102E1000010D50398988083CABAA2A3E10B5002123
:102E2000044601F0D9F810B104F1004010BD20466D
:102E300010BDC36810B523F02003C3608269836AA4
:102E400004469A420ED000F0E8F8E36823F44053B9
:102E500023F0100343F01003E360A36AA361236926
:102E6000E3622360E36823F4804323F04003E360DC
:102E700010BDCB6870B523F400229B0605460C46B6
:102E8000CA6002D50846FFF7D4FFA168E3684E1C6C
:102E90000DDA98050BD443F49033E3606FF0010230
:102EA0002368521AA2605A1C22601D7055E041F23C
:102EB0008A021A40022A1E4605D0002243F08003EF
:102EC000A260E36051E04AF210011940B1F5004FF1
:102ED0000AD10021204600F02DFAE368990602D5B8
:102EE0002046FFF7A6FFE66846F4903316F4706FAD
:102EF000E3601DD1606901F013F958B1720509D57D
:102F000004F12403236123600123E36146F4923337
:102F1000E3600DE04FF4807000F0ACF94FF4807383
:102F2000E268E36146F494331A4320612060E26072
:102F300013F4106F226826691AD0E16A8A422CBF06
:102F4000C6EB0201C6EB010149B9731CE3622360C1
:102F5000E3695A1EA26023633570E8B270BD224651
:102F6000304600F0D7F80028EFD04FF0FF3070BDAA
:102F7000511CEDB2216015702268E16A8A422CBFB3
:102F8000C6EB0201C6EB0101E2695B05226303D4D3
:102F90000A2D01D0914209DB0023E6622660A3607E
:102FA0002246304600F0B6F80028DED1284670BD33
:102FB00070B50D4606461046144600F06BF92B78A6
:102FC000722B0AD0772B05D0612B22D1082348F22F
:102FD000020204E00423022201E00023012215F88A
:102FE000011F2B2906D0622909D142F0040243F0C7
:102FF0000103F4E742F0030243F00203EFE71B078B
:10300000E260666107D502220021204600F092F9B5
:1030100001E0002070BD204670BD38B5044605694A
:103020000168C36AC06820F40022E26000F08202F6
:10303000022A02D04FF0FF3038BD10F4803015D096
:10304000994238BF19468D4208D1E368002023F425
:103050008033E5622560A060E36038BD2246491BED
:10306000284600F057F80028EFD0E3E738BDF8B560
:1030700015460023002206460F4600F046FD20B10B
:1030800000232B6000200021F8BDC7F30A5330460F
:103090003946A3F2FE348BB93246C7F31303D70F78
:1030A00003F4002647EA4303C3F3130352001EB19F
:1030B00063F31301104601E0013CF0E740F2FE33F8
:1030C0002C6063F31E51F8BD70B500231646002234
:1030D00004460D4600F019FD10B10020002170BD1E
:1030E00040F2FE73C5F30A5232449A422046294602
:1030F00006DD064B22221A60054BD3E9000170BDA4
:10310000002AEADD62F31E5170BD00BF0C01001001
:10311000D04200002DE9F041D5688046EB020E4612
:103120001446576905D5384600F0F4FF45F0100500
:10313000A061114B2B4053B1A169384600F0FCFF50
:10314000002810DB25F4003525F01005E560324637
:1031500041463846FDF76CFF20F00043F61AA3699C
:103160001E44A66128B1E3684FF0FF3043F08003AE
:10317000E360BDE8F08100BF10000200F8B5304FF9
:103180003C68A0B1C51CAD08002605F10A0E05F18A
:10319000030C05E02368B3F1805F14D02646A468D1
:1031A000002CF7D10C3000F073F9431C10D1002033
:1031B000F8BD1168B1F1805F15D151680B4403333C
:1031C00063609368A360A2686368002AF1D10AE093
:1031D0004FF0005380E8280084600EB9386000E0AA
:1031E000B0600C30F8BD9D4207DC634505DC20462D
:1031F0004FF0005340F80C3BF8BD734511D9204601
:103200004FF00051656040F80C1B00EB8501A16098
:103210004FF0805440F825405D1B033D4D608A60AF
:10322000F8BD002ABAD1A0EB830000F031F90130DB
:10323000BDD04FF0005384E8280004F10C00F8BD25
:1032400010010010A8B14FF0805340F80C3C50F82A
:10325000042C72B11368B3F1805F0AD1536850F83F
:10326000081C0B44033340F8083C936840F8043CC6
:10327000EDE7704710B5FFF781FF044628B9172224
:103280000349FDF7D5FE00F039FF204610BD00BF11
:10329000B6420000F0B5C46889B0A107054621D048
:1032A000220718D44769066900F020F8384600F074
:1032B0002BFF230502D53046FFF7C4FFA40DA4055C
:1032C00014F1A54F07D12022296A684600F03AFF81
:1032D000684600F0D3F83C2200212846FEF770F83B
:1032E000002001E04FF0FF3009B0F0BDF7B5044613
:1032F00030B90E4B05461B683C2701930C4E04E089
:1033000003B0BDE8F04000F0E3B8019B9C4209DA4D
:1033100007FB046000F0DCF8002818BF4FF0FF3511
:103320000134F2E7284603B0F0BD00BFD8420000E8
:10333000180100102DE9F843C6683D4B04463340A0
:103340000D469046002B6FD0D0F81490484600F000
:10335000E7FE0746002867D1B8F1010F06D0B8F1A3
:10336000020F08D0B8F1000F5ED126E0204600F031
:1033700061F8054421E0484600F0CCFEB0F1000EB3
:10338000E16804DA41F08001E16001274DE0E36A81
:103390001A46A3691846236893422CBFC0188018A8
:1033A00023698A06A0EB030303D5A26A9342B8BF40
:1033B00013467345ACBFED187544002D34DBB004E3
:1033C00004D52368E26A9A4238BFE362A1698D425C
:1033D0000EDB2268E36A2069934238BF13465A180D
:1033E000121A954204DC226B01EB020E754506DBD6
:1033F000002346F02006A3606360A5620EE06D1A0C
:10340000B10744BFAA1AA260F20744BF1B1AEB1A05
:10341000054448BF6360256026F0200626F4032695
:1034200026F04006E66000E002273846BDE8F88353
:1034300003001000C3689A0705D10F4B21221A60C0
:103440004FF0FF30704713F4002F03F0200309D032
:103450000BB1806A04E00268836900691344181A9A
:10346000013870470BB1806A704702688369006950
:103470001344181A704700BF0C01001010B5044621
:10348000FFF700FC01462046BDE8104000F04EBEAC
:1034900038B50C4B1A680AB90B4A1A60C41C1D686F
:1034A00024F003042C44204600F034F818B9054BEE
:1034B00028461C6038BD054B0C221A604FF0FF30C7
:1034C00038BD00BF14010010F80200100C010010FC
:1034D000C26870B512F00303044618D0930603D5F2
:1034E000856AFFF7A6FC04E0056883692B4405693B
:1034F0005D1BE368204623F44053E360FFF78DFD36
:103500000646002229462046FFF714FF3346184698
:1035100070BDFFFF044B23B1984234BF002001204F
:1035200070471846704700BF000000002DE9F04FBB
:10353000C1F30A5681EA0304002E58D040F2FF7707
:10354000BE4254D0C3F30A55002D50D0BD424ED0D8
:1035500006EB050EC1F31301550D41F4801145EA48
:10356000C323D20243F00045A1FB02ABA2FB002320
:103570004FF0000913EB0A0849F10009E0FB058947
:10358000002719EB0B0647F10007E5FB0167B7F5CC
:10359000801F04F0004448EA920809D2B6194FEAA5
:1035A000D873AEF5806E7F411E434FEA480801E0B4
:1035B000AEF2FF3E40F2FD724FEAD873F61847F1C3
:1035C0000007B8F1004F334608BF26F001039645C7
:1035D00005D83C4304EB0E511846BDE8F08FBEF110
:1035E000000F0EDB44F0FF4444F4E00409E049001E
:1035F00011F5001F04F0004407D25A0012F5001F15
:1036000004D200202146BDE8F08F09D15B0013F5FC
:10361000001F05D8490D490511B15B0D5B051BB9AC
:1036200000200549BDE8F08F44F0FF44002044F439
:10363000E001BDE8F08F00BF0000F87F2DE9F04306
:10364000C1F30A56002E58D040F2FF77BE4254D044
:10365000C3F30A54002C50D0BC424ED0C4EB060E2B
:10366000460D81EA030446EAC12141F00047510DAD
:1036700041EAC32343F00049C6024FEAC2284F453E
:1036800008BF464502D20EF2FD3104E07F084FEA42
:1036900036060EF2FE315FEA59094FEA3808352343
:1036A00000224F4508BF46454FEA420205D3B6EB1C
:1036B000080667EB090742F00102B6197F41212B8A
:1036C00008BF1546013BECD14F4508BF464502D324
:1036D000013208BF013540F2FD70814204F0004321
:1036E00003D803EB0153591922E00029A4BF43F08A
:1036F000FF4343F4E003002034E0480010F5001FCE
:1037000003D85C0014F5001F01D900202DE041EA28
:103710000302C2F30A5255051AB915492846BDE8F5
:10372000F083420D4B40520503F000431AB919468D
:103730001046BDE8F083620D520522B943F0FF4305
:1037400043F4E001F4E714F5001F06D043F0FF4313
:10375000002043F4E001BDE8F08310F5001F4FF0B6
:10376000000002D01946BDE8F0830149BDE8F083AE
:103770000000F87FF0B491EA030405460E4605D533
:1037800003F100452B46F0BC00F0C4B8994203D3C6
:10379000904208D8994206D1554004F100416A4050
:1037A0004E404B40554040F2FF70370D27F400610A
:1037B0008142A7EB135400F09C808C4200F096806D
:1037C000C6F31301C3F313031F2C41F4801143F418
:1037D00080134ED823FA04F0091A22FA04F0C4F137
:1037E0002004A3401843281A854238BF01F1FF3155
:1037F00012FA04F304D05B42451E10B9013900E00F
:10380000054611F4C01F51D1EA0FDB0F42EA410215
:1038100043EA450352EA030469D0BD1E510B05D1AA
:10382000190E41EA02221B02083DF7E7510C01BFC5
:10383000190F41EA02121B01043DD10C01BF990F7F
:1038400041EA82029B00023D110D04BFD90F05F130
:10385000FF354FEAD72404BF41EA42025B00B4EBD4
:10386000D52F4FF0000006BF02EB05511846E107C7
:103870004BE0352C1AD8203C23FA04F0281A854254
:10388000C4F1200538BF01F1FF3122FA04F4AB4046
:10389000120643EA040302D043F0FF0300E023B121
:1038A0005B42451E10B9013900E00546CA020DD43D
:1038B000013F7A0507D0EA0F42EA4101DA0F42EAF6
:1038C00045055B0002E0390510461EE0002B21F49F
:1038D00080124FEA075407DA013508BF0132B3F10D
:1038E000004F08BF25F00105A1180DE05CB9214685
:1038F00007E033034FF0000001D0054905E014B99B
:103900000349204601E031462846F0BC704700BF1D
:103910000000F87F70B491EA030504460E4605D511
:1039200003F100452B4670BCFFF724BF994204D237
:10393000544062406E406B40544040F2FF75300D81
:1039400020F40061A9425ED0A0EB13558D4255D002
:10395000C6F31301C3F313031F2D41F4801143F485
:1039600080130ED823FA05F6314422FA05F6C5F184
:103970002005AB403343E41828BF013102FA05F3B8
:1039800012E0352D10D8203D23FA05F6A419C5F113
:10399000200603FA06F322FA05F528BF01312B436E
:1039A000120618BF43F0FF038A0215D5013408BF81
:1039B00001310BB924F00204050505EB51056B003C
:1039C00013F5001F04D2C9072B4641EA540212E046
:1039D000431C190500201EE0002B00F1FF3007DA20
:1039E000013408BF0131B3F1004F08BF24F00104D6
:1039F000224601EB0053104619460CE04DB906F083
:103A00000041284607E033034FF0000001D003498E
:103A100001E03146204670BC704700BF0000F87FCF
:103A200021F0004310B503F1474404F57004B4F1EC
:103A30007E6F024601F000400ED2D10003F14843F0
:103A4000520F42EAC30202EBD173B1F1004F08BF3B
:103A500023F00103184310BD002C07DB490011F5CA
:103A6000001F02D840F0FF4010BD014810BD00BF4C
:103A70000000C07FCB0243EA50500B0DC3F58363B7
:103A8000063340F00040FF2B20FA03F011D913F465
:103A9000E06F01D14042704711F0804009D04B00E7
:103AA00013F5001F04D8C80F00F10040013870471B
:103AB0000020704710B9034602461BE0030C0CBF00
:103AC000000401F18071030E0CBF000201F500013A
:103AD000030F0CBF000101F58001830F0CBF8000B4
:103AE00001F500110028ACBF400001F5801101EB89
:103AF000E023420510461946704710F0004118BFF8
:103B0000404201F18041FFF7D5BF10B54C0050EAAB
:103B1000040E02D152EA430E09D0994209D19042D3
:103B200007D114F5001F8CBF0020012010BD01201B
:103B300010BD002010BD30B5054651EA03000BD47E
:103B4000580010F5001F1ED899421AD31BD1954278
:103B50002CBF0020012030BD480010F5001F12D8F6
:103B60005C0014F5001F0ED8284302D152EA04006D
:103B70000AD0994205D806D1954294BF0020012071
:103B800030BD012030BD002030BD30B551EA030406
:103B90000BD45C0014F5001F1FD899421BD31CD115
:103BA00090428CBF0020012030BD4D0015F5001F54
:103BB00013D85C0014F5001F0FD899420BD801D11F
:103BC000904208D250EA050307D152EA04030CBF21
:103BD0000120002030BD012030BD002030BD30B5B7
:103BE00051EA03044FEA41040AD414F5001F1ED819
:103BF00099421AD81BD1904234BF0020012030BD19
:103C000014F5001F13D85D0015F5001F0FD8994259
:103C10000BD301D1904208D950EA040307D152EAEC
:103C200005030CBF0120002030BD012030BD002065
:103C300030BDFFFF30B5C0F3C75481EA000394B331
:103C4000FF2C30D0C1F3C7526AB3FF2A2BD02244D5
:103C50000902040241F0004144F00044A4FB014584
:103C60002946002DA8BF690003F0004343EA112054
:103C70004FEA0161B4BF7F3A803AB1F1004F00EBE7
:103C8000C25004D0FD2A02D800EBD17030BD013003
:103C90000CB920F00100FD2A21D9002AA8BF43F069
:103CA000FF43184630BD4000B0F17F4F06D24A00B6
:103CB000B2F17F4F03D203F0004030BD0ED1490076
:103CC000B1F17F4F0AD810F07F4F07D011F07F4F2E
:103CD00004D003F0004040F0FF4030BD004830BD4C
:103CE0000000C07FC0F3C75370B5CBB3FF2B37D0F4
:103CF000C1F3C754A4B3FF2C32D080EA01050202FD
:103D0000090242F0004241F000418A42A3EB040460
:103D100032BF7D347E345208FD2C1CD8090AB2FB18
:103D2000F1F303FB11221202B2FBF1F606FB1122A2
:103D3000E80F120203EBC030B2FBF1F303FB1122D8
:103D400006EB0026E40504EB06263344A1EB420211
:103D500003EBD27070BD002C05F0004017DA1EE0B6
:103D60004300B3F17F4F19D84C00B4F17F4F15D801
:103D700040EA0102520012F07F4F0FD0484013F08A
:103D80007F4F00F000400AD0B4F17F4F02D040F0E6
:103D9000FF4070BDB3F17F4F00D070BD004870BDD3
:103DA0000000C07F90EA010230B4034604D501F15F
:103DB000004130BC00F066B888423CBF02F10042CE
:103DC00053404FEAD35438BF5140E2B2FF2AA4EB2C
:103DD000D1554BD0954244D009021B0241F000411D
:103DE00043F0004321FA05F29B1A11D503F1004379
:103DF00080331A0A1B0602EBC4503FD1C5F12005DF
:103E000011FA05F30CBF20F0010000F1FF3035E09E
:103E10005B00002B15DA803318121B0600EBC45030
:103E200004F0FE0400D04CBBC5F1200511FA05F3E7
:103E30000CBF20F0010000F1FF30FCB900F00040A1
:103E40001CE018D0B3FA83F0E205023C241AE40522
:103E500092EA040F5ABF834004EB132002F00040A3
:103E60000CE0002D14BF1846002007E05A0204D1D0
:103E70001DB1184602E0002000E0014830BC704748
:103E80000000C07F90EA010230B4034604D501F17E
:103E9000004130BCFFF786BF884238BF53404FEA2D
:103EA000D35038BF5140C2B2FF2A38D0A0EBD15511
:103EB000954230D009021A0241F0004142F000421E
:103EC00021FA05F412190FD202F100428032140ACD
:103ED000120604EBC05324D1C5F1200511FA05F2F6
:103EE0001FD123F001031CE0013002F58072C405EC
:103EF00004EB5223D205C0B201D0FF2811D1C5F185
:103F0000200511FA05F208BF23F00103FF280CBFBA
:103F10002046184608E025B903F0004301E05A02A4
:103F200001D1184600E0014830BC70470000C07F56
:103F3000C20D030243F00043C2F19E009D2A23FA02
:103F400000F00DD9D1B29D2901D840427047FF2918
:103F500002D1B3F1004F03D1100A00F10040013843
:103F6000704778B1B0FA80F200FA02F3C2F11F0094
:103F7000803301EBC05101EB23201B0603D120F05D
:103F8000010070470020704710F0004118BF404208
:103F900001F18041FFF7E5BF4FF08041FFF7E1BF3E
:103FA000C31013F07F610AD0B1F17F6F4FEA407206
:103FB00043F0E04308D003F148411046704703F056
:103FC000004300201946704752EA0332014A18BFE5
:103FD0001346F6E70000F87F50EA010308D44B00CF
:103FE000B3F17F4F13D888422CBF002001207047C7
:103FF0004200B2F17F4F0AD84A00B2F17F4F06D893
:10400000884204D913F1004018BF012070470020F6
:10401000704750EA01034FEA400207D4B2F17F4FE4
:1040200012D8884294BF002001207047B2F17F4F20
:104030000AD84A00B2F17F4F06D8884204D213F161
:10404000004018BF012070470020704750EA01036C
:1040500008D44B00B3F17F4F13D888428CBF0020A7
:10406000012070474200B2F17F4F0AD84A00B2F1F6
:104070007F4F06D8884206D203F100435842584188
:104080007047002070470120704750EA01034FEA53
:10409000400207D4B2F17F4F12D8884234BF0020CB
:1040A00001207047B2F17F4F0AD84A00B2F17F4F2A
:1040B00006D8884206D903F1004358425841704758
:1040C0000020704701207047034613F0030F0ED104
:1040D00001F0FF0141EA012141EA0141043A24BF14
:1040E00043F8041BB2F10402F9D202F10402013ACE
:1040F00024BF03F8011BFAE77047FFFF18200149AE
:10410000ABBE70472600020003B469460220ABBE76
:1041100002B0704703B469460C20ABBE02B07047D2
:1041200003B469460920ABBE02B0704703B46946C8
:104130000E20ABBE02B0704703B469460A20ABBE86
:1041400002B070470FB469460D20ABBE04B0704793
:10415000D0A0D0B0D0B7D180D0B0D0B1D0BED182B5
:10416000D187D0B8D0BA20D09BD0B5D181D0B8D02B
:10417000BA20D090D0BBD0B5D0BAD181D0B0D0BD0C
:10418000D0B4D180200A20D092D18BD0B2D0BED072
:10419000B420D09BD0BED0B3D0BED0B23A200A005B
:1041A000300000003332206E000000004144302017
:1041B0003D2025646D560A00202020007265732082
:1041C0003D202531302E36660A00FFFF000080BFFB
:1041D00000000000F304353F5E836C3FBE147B3F5C
:1041E0006DC47E3F0FB17F3F43EC7F3F11FB7F3FAC
:1041F000C4FE7F3FB1FF7F3FECFF7F3FFBFF7F3F70
:10420000FFFF7F3F00000000000080BFF30435BFC8
:1042100015EFC3BEC2C547BE36BDC8BD30FB48BDE5
:10422000B00AC9BC900E49BC880FC9BBC60F49BBB8
:10423000D50FC9BAD90F49BADA0FC9B92B00200076
:10424000307825637025640030582563502564005C
:10425000307825632E252E2A6C6C7870256400300A
:104260005825632E252E2A6C6C58502564002D008D
:104270007200770030313233343536373839616285
:104280006364656600286E756C6C290030580030D8
:1042900078003000303132333435363738394142E6
:1042A000434445460030313233343536373839618E
:1042B0006263646566002A2A2A205F437379735F0C
:1042C000616C6C6F63206661696C65640A00FFFF56
:0C42D000FFFFFFFFFFFFEF7F0800000072
:04000003000001B93F
:00000001FF
